:020000040800F2
:100000000000022045050008CD040008D3040008C4
:10001000D9040008DF040008E5040008000000001F
:10002000000000000000000000000000EB040008D9
:10003000F904000800000000070500081505000885
:100040009505000895050008950500089505000828
:100050009505000895050008950500089505000818
:100060009505000895050008950500089505000808
:1000700095050008950500089505000895050008F8
:10008000950500089505000895050008000000008A
:1000900000000000000000000000000095050008BE
:1000A00095050008950500089505000895050008C8
:1000B00095050008950500089505000895050008B8
:1000C00095050008950500089505000895050008A8
:1000D000950500089505000895050008000000003A
:1000E000950500089505000895050008000000002A
:1000F000000000000000000000000000950500085E
:100100000000000095050008950500089505000809
:1001100000000000000000000000000000000000DF
:100120009505000895050008950500089505000847
:10013000950500080000000000000000000000001D
:10014000000000000000000000000000950500080D
:100150009505000895050008950500089505000817
:10016000950500089505000800000000000000004B
:10017000000000000000000000000000000000007F
:1001800000000000950500080000000000000000CD
:08019000950500089505000823
:1001980010B5054C237833B9044B13B10448AFF3B9
:1001A80000800123237010BD0C0000200000000017
:1001B800D808000808B5034B1BB103490348AFF33F
:1001C800008008BD0000000010000020D8080008CA
:1001D80080B500AF00F0DCF900F026F800F06AF80E
:1001E80000F098F800F0C6F800F0F4F800F04AF8CB
:1001F8000346012B09D1C82000F03CFA094B1B78B3
:10020800C3F10103DAB2074B1A70064B1B78012BB6
:1002180003D1012000F00EF9E8E7002000F00AF908
:10022800E4E700BF2800002080B485B000AF0023B9
:100238007B60114B1B6B104A43F0010313630E4B99
:100248001B6B03F001037B607B680C4BFB60FB6856
:100258001B6823F00302FB681A60094BBB60BB688C
:100268001B6823F00302BB681A6000BF1437BD4641
:100278005DF8047B704700BF003802400000024070
:100288000C00024080B483B000AF094B7B607B68F0
:100298001B685B0803F00103002B01D0012300E079
:1002A800002318460C37BD465DF8047B704700BF35
:1002B8001000024080B483B000AF00233B60134BB2
:1002C8001B6B124A43F008031363104B1B6B03F0BC
:1002D80008033B603B680E4B7B607B681B6823F020
:1002E80080727B681A607B681B6823F000727B68E9
:1002F8001A607B681B6843F080727B681A6000BFD5
:100308000C37BD465DF8047B704700BF00380240DB
:10031800000C024080B483B000AF00233B60134B55
:100328001B6B124A43F008031363104B1B6B03F05B
:1003380008033B603B680E4B7B607B681B6823F0BF
:1003480080627B681A607B681B6823F000627B68A8
:100358001A607B681B6843F080627B681A6000BF84
:100368000C37BD465DF8047B704700BF003802407B
:10037800000C024080B483B000AF00233B60134BF5
:100388001B6B124A43F008031363104B1B6B03F0FB
:1003980008033B603B680E4B7B607B681B6823F05F
:1003A80080527B681A607B681B6823F000527B6868
:1003B8001A607B681B6843F080527B681A6000BF34
:1003C8000C37BD465DF8047B704700BF003802401B
:1003D800000C024080B483B000AF00233B60134B95
:1003E8001B6B124A43F008031363104B1B6B03F09B
:1003F80008033B603B680E4B7B607B681B6823F0FF
:1004080080427B681A607B681B6823F000427B6827
:100418001A607B681B6843F080427B681A6000BFE3
:100428000C37BD465DF8047B704700BF00380240BA
:10043800000C024080B485B000AF0346FB710C4B42
:10044800FB60FB79012B06D1FB681B6843F48052E3
:10045800FB681A6005E0FB681B6823F48052FB68A0
:100468001A6000BF1437BD465DF8047B704700BFB3
:10047800140C024080B483B000AF00237B60104BA3
:100488005B6C0F4A43F4804353640D4B5B6C03F47D
:1004980080437B607B6800233B60094B1B6C084AE8
:1004A80043F080531364064B1B6C03F080533B608E
:1004B8003B6800BF0C37BD465DF8047B704700BF42
:1004C8000038024080B400AFFEE780B400AFFEE71A
:1004D80080B400AFFEE780B400AFFEE780B400AFA1
:1004E800FEE780B400AF00BFBD465DF8047B7047EF
:1004F80080B400AF00BFBD465DF8047B704780B490
:1005080000AF00BFBD465DF8047B704780B500AF03
:1005180000F090F800BF80BD80B400AF064BD3F860
:100528008830054A43F47003C2F8883000BFBD46DE
:100538005DF8047B704700BF00ED00E0DFF834D0C1
:100548000D480E490E4A002302E0D458C450043323
:10055800C4188C42F9D30B4A0B4C002301E01360FA
:100568000432A242FBD3FFF7D7FF00F08DF9FFF763
:100578002FFE704700000220000000200C00002021
:10058800F80800080C00002030000020FEE70000FA
:1005980080B500AF0E4B1B680D4A43F4007313601F
:1005A8000B4B1B680A4A43F480631360084B1B68B3
:1005B800074A43F480731360032000F031F90F20D9
:1005C80000F008F8FFF756FF0023184680BD00BF6B
:1005D800003C024080B582B000AF7860124B1A68C8
:1005E800124B1B7819464FF47A73B3FBF1F3B2FB45
:1005F800F3F3184600F03BF90346002B01D0012322
:100608000EE07B680F2B0AD8002279684FF0FF3084
:1006180000F011F9064A7B681360002300E001230B
:1006280018460837BD4680BD00000020080000209D
:100638000400002080B400AF064B1B781A46064B16
:100648001B681344044A136000BFBD465DF8047B71
:10065800704700BF080000202C00002080B400AFC5
:10066800034B1B681846BD465DF8047B704700BF06
:100678002C00002080B584B000AF7860FFF7EEFF53
:10068800B8607B68FB60FB68B3F1FF3F05D00A4B9D
:100698001B781A46FB681344FB6000BFFFF7DEFFB8
:1006A8000246BB68D31AFA689A42F7D800BF00BF5F
:1006B8001037BD4680BD00BF0800002080B485B05B
:1006C80000AF78607B6803F00703FB600C4BDB68C6
:1006D800BB60BA684FF6FF031340BB60FB681A02A1
:1006E800BB68134343F0BF6343F40033BB60044A61
:1006F800BB68D36000BF1437BD465DF8047B704704
:1007080000ED00E080B400AF044BDB681B0A03F087
:1007180007031846BD465DF8047B704700ED00E00E
:1007280080B483B000AF03463960FB7197F9073096
:10073800002B0ADB3B68DAB20C4997F90730120143
:10074800D2B20B4483F800230AE03B68DAB20849C6
:10075800FB7903F00F03043B1201D2B20B441A7663
:1007680000BF0C37BD465DF8047B704700E100E030
:1007780000ED00E080B489B000AFF860B9607A603D
:10078800FB6803F00703FB61FB69C3F10703042B54
:1007980028BF0423BB61FB690433062B02D9FB691C
:1007A800033B00E000237B614FF0FF32BB6902FA94
:1007B80003F3DA43BB681A407B699A404FF0FF3174
:1007C8007B6901FA03F3D9437B680B40134318464E
:1007D8002437BD465DF8047B7047000080B582B0C1
:1007E80000AF78607B68013BB3F1807F01D30123C0
:1007F8000FE00A4A7B68013B53600F214FF0FF303E
:10080800FFF78EFF054B00229A60044B07221A60FF
:10081800002318460837BD4680BD00BF10E000E041
:1008280080B582B000AF78607868FFF747FF00BFF7
:100838000837BD4680BD80B586B000AF0346B960B5
:100848007A60FB7300237B61FFF75CFF78617A684D
:10085800B9687869FFF78EFF024697F90F3011469D
:100868001846FFF75DFF00BF1837BD4680BD80B54D
:1008780082B000AF78607868FFF7B0FF034618468B
:100888000837BD4680BD000070B50D4D0D4C641B8A
:10089800A4100026A64209D10B4D0C4C00F018F804
:1008A800641BA4100026A64205D170BD55F8043B70
:1008B80098470136EEE755F8043B98470136F2E7CA
:1008C800F0080008F0080008F0080008F40800081C
:1008D800F8B500BFF8BC08BC9E467047F8B500BF25
:0808E800F8BC08BC9E467047F5
:0408F000BD0100083E
:0408F400990100085E
:0C08F8000024F4001000000001000000CB
:0400000508000545A5
:00000001FF
